:100000001DC024C023C022C021C020C01FC01EC0EC
:100010001DC01CC01BC01AC019C018C017C016C014
:1000200015C014C013C012C011C010C00FC00EC044
:100030000DC00CC00BC00AC009C008C011241FBEEF
:10004000CFEFD2E0DEBFCDBF02D018C0D9CF8FEF47
:1000500087BB88BB2FEF39E698E1215030409040B4
:10006000E1F700C0000018BA2FEF39E698E12150FF
:1000700030409040E1F700C00000EBCFF894FFCF94
:00000001FF
