:100000001DC037C036C035C034C033C032C031C067
:1000100030C02FC02EC02DC02CC02CC02AC029C07B
:1000200028C027C026C025C024C023C022C021C0AC
:1000300020C01FC01EC01DC01CC084C011241FBE14
:10004000CFEFD2E0DEBFCDBF11E0A0E0B1E0E2EC47
:10005000F2E002C005900D92A030B107D9F721E07F
:10006000A0E0B1E001C01D92AE30B207E1F7EBD0E5
:1000700026C1C6CF1F920F920FB60F9211240F9078
:100080000FBE0F901F90189517BA88E88ABB87E0BB
:1000900080936000789488E38093A50082E0809349
:1000A000A200089583E885B914B881E089B918B829
:1000B0002E9A2E99FECF87B190E0EAE0F1E091838D
:1000C000808386B190E09383828326B130E03093C1
:1000D00007012093060187B1382B30930701209345
:1000E0000601EFEFF3E0CF01B901D5D0CB01880FC6
:1000F000991F880F991F880F991F860F971F880FC8
:10010000991F860F971F82959295907F9827807FE1
:100110009827861B970BAC01440F551F42955295AB
:10012000507F5427407F5427840F951F680F791FF5
:10013000605177427093050160930401CF01821BE7
:10014000930B08951F920F920FB60F9211242F93C5
:100150003F938F939F93EF93FF938091A30086FF2C
:1001600014C08091A30081FF08C010920101109279
:10017000000183E08093A4005BC010920301109201
:10018000020183E08093A40053C08091A3008823E0
:100190000CF04EC08091A30081FF22C0809100012D
:1001A000909101010297C4F48091000190910101A6
:1001B0009C012F5F3F4F3093010120930001880F76
:1001C000991FFC01E65FFE4F808191818093A00022
:1001D00083E08093A4002CC082E08093A40028C018
:1001E00080910201909103010297ACF48091020189
:1001F000909103019C012F5F3F4F309303012093A7
:1002000002012091A00030E0880F991FFC01E65FF9
:10021000FE4F318320838091020190910301029768
:1002200024F483E08093A40003C086E08093A400BC
:10023000FF91EF919F918F913F912F910F900FBE62
:100240000F901F901895E2E7F0E080818260808334
:1002500088ED8093710082E08093730015DFC09871
:10026000DF982FE38DE093E0215080409040E1F74C
:1002700000C0000017DF9093090180930801C09A25
:10028000DF9A2FE38DE093E0215080409040E1F72A
:1002900000C00000E4CFAA1BBB1B51E107C0AA1F8E
:1002A000BB1FA617B70710F0A61BB70B881F991F17
:1002B0005A95A9F780959095BC01CD010895F894C1
:0202C000FFCF6E
:00000001FF
