:100000001DC037C036C035C034C033C032C031C067
:1000100030C02FC02EC02DC02CC02CC02AC029C07B
:1000200028C027C026C025C024C023C022C021C0AC
:1000300020C01FC01EC01DC01CC086C011241FBE12
:10004000CFEFD2E0DEBFCDBF11E0A0E0B1E0E4EB46
:10005000F3E002C005900D92A631B107D9F721E077
:10006000A6E1B1E001C01D92AA31B207E1F77AD151
:100070009FC1C6CF1F920F920FB60F9211240F90FF
:100080000FBE0F901F9018958FE087BB87E080937D
:100090006000789488E38093A50082E08093A200BA
:1000A000089523E825B914B889B920E628B92E9A0D
:1000B0002E99FECF8130910591F030F0823091057C
:1000C000C9F0079711F12BC087B190E0E0E0F1E0B3
:1000D0009187808786B190E09387828720C087B11F
:1000E00090E0E0E0F1E09183808386B190E093833B
:1000F000828315C087B190E0E0E0F1E095838483CE
:1001000086B190E0978386830AC087B190E0E0E0F3
:10011000F1E09587848786B190E09787868786B1DE
:1001200027B190E0922B089580E090E0BADF089527
:1001300087E090E0B6DF089581E090E0B2DF0895B7
:1001400082E090E0AEDF08951F920F920FB60F92FB
:1001500011242F933F938F939F93EF93FF9380915D
:10016000A30086FF14C08091A30081FF08C01092F5
:1001700017011092160183E08093A400E8C010924A
:1001800019011092180183E08093A400E0C08091CF
:10019000A30088230CF0DBC08091A30081FFB2C0D4
:1001A000809116019091170102970CF0A7C08091E1
:1001B0001401909115018330910509F43FC034F486
:1001C0008130910559F0029709F180C08430910582
:1001D00009F44CC0059709F461C078C080911601FC
:1001E000909117019C012F5F3F4F3093170120938F
:1001F0001601880F991FFC01E050FF4F808191810B
:100200008093A00083E08093A400A1C08091160198
:10021000909117019C012F5F3F4F3093170120935E
:100220001601880F991FFC01EC5FFE4F80819181C0
:100230008093A00083E08093A40089C08091160180
:10024000909117019C012F5F3F4F3093170120932E
:100250001601880F991FFC01E85FFE4F8081918194
:100260008093A00083E08093A40071C08091160168
:10027000909117019C012F5F3F4F309317012093FE
:100280001601880F991FFC01E45FFE4F8081918168
:100290008093A00083E08093A40059C08091160150
:1002A000909117019C012F5F3F4F309317012093CE
:1002B0001601880F991FFC01E05FFE4F808191813C
:1002C0008093A00083E08093A40041C08091160138
:1002D000909117019C012F5F3F4F3093170120939E
:1002E0001601880F991FFC01E05FFE4F808191810C
:1002F0008093A00083E08093A40029C082E08093D3
:10030000A40025C0809118019091190118161906B2
:1003100084F08091A00090E09093150180931401E7
:100320008091180190911901019690931901809381
:10033000180180911801909119011816190624F0DE
:1003400083E08093A40003C086E08093A400FF9123
:10035000EF919F918F913F912F910F900FBE0F9032
:100360001F901895E2E7F0E080818260808388ED3D
:100370008093710082E08093730086DEC09A2FE341
:100380008DE093E0215080409040E1F700C00000F4
:10039000CFDED2DED5DEC8DEC09AC0982FE38DE076
:1003A00093E0215080409040E1F700C00000E6CF8C
:0403B000F894FFCFEF
:1003B4000000000000000000000000000000000039
:0603C400CC001000040053
:00000001FF
