S01700004763634170706C69636174696F6E322E737265635A
S11300001DC037C036C035C034C033C032C031C063
S113001030C02FC02EC02DC02CC02CC02AC029C077
S113002028C027C026C025C024C023C022C021C0A8
S113003020C01FC01EC01DC01CC058C011241FBE3C
S1130040CFEFD2E0DEBFCDBF11E0A0E0B1E0ECE243
S1130050F2E002C005900D92A030B107D9F721E07B
S1130060A0E0B1E001C01D92AC30B207E1F7BFD00F
S1130070DBC0C6CF1F920F920FB60F9211240F90C0
S11300800FBE0F901F90189517BA88E88ABB87E0B7
S113009080936000789488E38093A50082E0809345
S11300A0A200089583E885B914B881E089B918B825
S11300B02E9A2E99FECF87B190E0E8E0F1E091838B
S11300C0808386B190E09383828326B130E03093BD
S11300D005012093040187B1382B30930501209347
S11300E004018FEF93E0821B930B08951F920F92EC
S11300F00FB60F9211242F933F938F939F93EF93F7
S1130100FF938091A30086FF14C08091A30081FF18
S113011008C0109201011092000183E08093A400B2
S11301205BC0109203011092020183E08093A4004B
S113013053C08091A30088230CF04EC08091A3008B
S113014081FF22C080910001909101010297C4F4C3
S113015080910001909101019C012F5F3F4F3093EA
S1130160010120930001880F991FFC01E85FFE4FF5
S1130170808191818093A00083E08093A4002CC0AF
S113018082E08093A40028C0809102019091030131
S11301900297ACF480910201909103019C012F5FBE
S11301A03F4F30930301209302012091A00030E0DF
S11301B0880F991FFC01E85FFE4F318320838091F3
S11301C0020190910301029724F483E08093A40038
S11301D003C086E08093A400FF91EF919F918F91DB
S11301E03F912F910F900FBE0F901F9018954CDFE9
S11301F0C098DF982FE986E891E021508040904034
S1130200E1F700C000004EDF9093070180930601E0
S1130210C09ADF9A2FE986E891E02150804090400F
S10F0220E1F700C00000E4CFF894FFCF29
S9030000FC
